{
  "address": "0xd040309924C25a7B5E2E7C23A18890F7d976D6E5",
  "abi": [
    {
      "inputs": [
        {
          "internalType": "address",
          "name": "_owner",
          "type": "address"
        },
        {
          "internalType": "contract IERC20",
          "name": "_swdToken",
          "type": "address"
        },
        {
          "internalType": "uint256",
          "name": "_swdPerBlock",
          "type": "uint256"
        },
        {
          "internalType": "uint256",
          "name": "_startBlock",
          "type": "uint256"
        }
      ],
      "stateMutability": "nonpayable",
      "type": "constructor"
    },
    {
      "anonymous": false,
      "inputs": [
        {
          "indexed": true,
          "internalType": "address",
          "name": "user",
          "type": "address"
        },
        {
          "indexed": true,
          "internalType": "uint256",
          "name": "pid",
          "type": "uint256"
        },
        {
          "indexed": false,
          "internalType": "uint256",
          "name": "amount",
          "type": "uint256"
        }
      ],
      "name": "Deposit",
      "type": "event"
    },
    {
      "anonymous": false,
      "inputs": [
        {
          "indexed": true,
          "internalType": "address",
          "name": "user",
          "type": "address"
        },
        {
          "indexed": true,
          "internalType": "uint256",
          "name": "pid",
          "type": "uint256"
        },
        {
          "indexed": false,
          "internalType": "uint256",
          "name": "amount",
          "type": "uint256"
        }
      ],
      "name": "EmergencyWithdraw",
      "type": "event"
    },
    {
      "anonymous": false,
      "inputs": [
        {
          "indexed": true,
          "internalType": "address",
          "name": "previousOwner",
          "type": "address"
        },
        {
          "indexed": true,
          "internalType": "address",
          "name": "newOwner",
          "type": "address"
        }
      ],
      "name": "OwnershipTransferred",
      "type": "event"
    },
    {
      "anonymous": false,
      "inputs": [
        {
          "indexed": true,
          "internalType": "address",
          "name": "user",
          "type": "address"
        },
        {
          "indexed": true,
          "internalType": "uint256",
          "name": "pid",
          "type": "uint256"
        },
        {
          "indexed": false,
          "internalType": "uint256",
          "name": "amount",
          "type": "uint256"
        }
      ],
      "name": "Withdraw",
      "type": "event"
    },
    {
      "inputs": [
        {
          "internalType": "uint256",
          "name": "_allocPoint",
          "type": "uint256"
        },
        {
          "internalType": "contract IERC20",
          "name": "_lpToken",
          "type": "address"
        },
        {
          "internalType": "bool",
          "name": "_withUpdate",
          "type": "bool"
        }
      ],
      "name": "add",
      "outputs": [],
      "stateMutability": "nonpayable",
      "type": "function"
    },
    {
      "inputs": [
        {
          "internalType": "uint256",
          "name": "_pid",
          "type": "uint256"
        },
        {
          "internalType": "uint256",
          "name": "_amount",
          "type": "uint256"
        }
      ],
      "name": "deposit",
      "outputs": [],
      "stateMutability": "nonpayable",
      "type": "function"
    },
    {
      "inputs": [
        {
          "internalType": "uint256",
          "name": "_pid",
          "type": "uint256"
        }
      ],
      "name": "emergencyWithdraw",
      "outputs": [],
      "stateMutability": "nonpayable",
      "type": "function"
    },
    {
      "inputs": [],
      "name": "massUpdatePools",
      "outputs": [],
      "stateMutability": "nonpayable",
      "type": "function"
    },
    {
      "inputs": [],
      "name": "owner",
      "outputs": [
        {
          "internalType": "address",
          "name": "",
          "type": "address"
        }
      ],
      "stateMutability": "view",
      "type": "function"
    },
    {
      "inputs": [
        {
          "internalType": "uint256",
          "name": "_pid",
          "type": "uint256"
        },
        {
          "internalType": "address",
          "name": "_user",
          "type": "address"
        }
      ],
      "name": "pendingSwd",
      "outputs": [
        {
          "internalType": "uint256",
          "name": "",
          "type": "uint256"
        }
      ],
      "stateMutability": "view",
      "type": "function"
    },
    {
      "inputs": [
        {
          "internalType": "uint256",
          "name": "",
          "type": "uint256"
        }
      ],
      "name": "poolInfo",
      "outputs": [
        {
          "internalType": "contract IERC20",
          "name": "lpToken",
          "type": "address"
        },
        {
          "internalType": "uint256",
          "name": "allocPoint",
          "type": "uint256"
        },
        {
          "internalType": "uint256",
          "name": "lastRewardBlock",
          "type": "uint256"
        },
        {
          "internalType": "uint256",
          "name": "accSwdPerShare",
          "type": "uint256"
        }
      ],
      "stateMutability": "view",
      "type": "function"
    },
    {
      "inputs": [],
      "name": "poolLength",
      "outputs": [
        {
          "internalType": "uint256",
          "name": "",
          "type": "uint256"
        }
      ],
      "stateMutability": "view",
      "type": "function"
    },
    {
      "inputs": [],
      "name": "renounceOwnership",
      "outputs": [],
      "stateMutability": "nonpayable",
      "type": "function"
    },
    {
      "inputs": [
        {
          "internalType": "uint256",
          "name": "_pid",
          "type": "uint256"
        },
        {
          "internalType": "uint256",
          "name": "_allocPoint",
          "type": "uint256"
        },
        {
          "internalType": "bool",
          "name": "_withUpdate",
          "type": "bool"
        }
      ],
      "name": "set",
      "outputs": [],
      "stateMutability": "nonpayable",
      "type": "function"
    },
    {
      "inputs": [],
      "name": "startBlock",
      "outputs": [
        {
          "internalType": "uint256",
          "name": "",
          "type": "uint256"
        }
      ],
      "stateMutability": "view",
      "type": "function"
    },
    {
      "inputs": [],
      "name": "swdPerBlock",
      "outputs": [
        {
          "internalType": "uint256",
          "name": "",
          "type": "uint256"
        }
      ],
      "stateMutability": "view",
      "type": "function"
    },
    {
      "inputs": [],
      "name": "swdToken",
      "outputs": [
        {
          "internalType": "contract IERC20",
          "name": "",
          "type": "address"
        }
      ],
      "stateMutability": "view",
      "type": "function"
    },
    {
      "inputs": [],
      "name": "totalAllocPoint",
      "outputs": [
        {
          "internalType": "uint256",
          "name": "",
          "type": "uint256"
        }
      ],
      "stateMutability": "view",
      "type": "function"
    },
    {
      "inputs": [
        {
          "internalType": "address",
          "name": "newOwner",
          "type": "address"
        }
      ],
      "name": "transferOwnership",
      "outputs": [],
      "stateMutability": "nonpayable",
      "type": "function"
    },
    {
      "inputs": [
        {
          "internalType": "uint256",
          "name": "_pid",
          "type": "uint256"
        }
      ],
      "name": "updatePool",
      "outputs": [],
      "stateMutability": "nonpayable",
      "type": "function"
    },
    {
      "inputs": [
        {
          "internalType": "uint256",
          "name": "",
          "type": "uint256"
        },
        {
          "internalType": "address",
          "name": "",
          "type": "address"
        }
      ],
      "name": "userInfo",
      "outputs": [
        {
          "internalType": "uint256",
          "name": "amount",
          "type": "uint256"
        },
        {
          "internalType": "uint256",
          "name": "rewardDebt",
          "type": "uint256"
        }
      ],
      "stateMutability": "view",
      "type": "function"
    },
    {
      "inputs": [
        {
          "internalType": "uint256",
          "name": "_pid",
          "type": "uint256"
        },
        {
          "internalType": "uint256",
          "name": "_amount",
          "type": "uint256"
        }
      ],
      "name": "withdraw",
      "outputs": [],
      "stateMutability": "nonpayable",
      "type": "function"
    }
  ],
  "transactionHash": "0x53d43171f402a98e59ac5b9f3f0b72eae6dfe29d93d18d0bc05a783c1de016ee",
  "args": [
    "0xf990fA19D80b019e74871ba7d6bad1bebD0e736D",
    "0xcf2ffFaFcD14B38F37212eA2Fb0202722f25fF4a",
    100000,
    0
  ],
  "solcInputHash": "dae298ba99c4149489203738d4864fcb",
  "bytecode": "0x608060405260006005553480156200001657600080fd5b506040516200250438038062002504833981810160405260808110156200003c57600080fd5b810190808051906020019092919080519060200190929190805190602001909291908051906020019092919050505060006200007d620001ba60201b60201c565b9050806000806101000a81548173ffffffffffffffffffffffffffffffffffffffff021916908373ffffffffffffffffffffffffffffffffffffffff1602179055508073ffffffffffffffffffffffffffffffffffffffff16600073ffffffffffffffffffffffffffffffffffffffff167f8be0079c531659141344cd1fd0a4f28419497f9722a3daafe3b4186f6b6457e060405160405180910390a35082600160006101000a81548173ffffffffffffffffffffffffffffffffffffffff021916908373ffffffffffffffffffffffffffffffffffffffff16021790555081600281905550806006819055503373ffffffffffffffffffffffffffffffffffffffff168473ffffffffffffffffffffffffffffffffffffffff1614620001b057620001af84620001c260201b60201c565b5b50505050620003d8565b600033905090565b620001d2620001ba60201b60201c565b73ffffffffffffffffffffffffffffffffffffffff1660008054906101000a900473ffffffffffffffffffffffffffffffffffffffff1673ffffffffffffffffffffffffffffffffffffffff161462000293576040517f08c379a00000000000000000000000000000000000000000000000000000000081526004018080602001828103825260208152602001807f4f776e61626c653a2063616c6c6572206973206e6f7420746865206f776e657281525060200191505060405180910390fd5b600073ffffffffffffffffffffffffffffffffffffffff168173ffffffffffffffffffffffffffffffffffffffff1614156200031b576040517f08c379a0000000000000000000000000000000000000000000000000000000008152600401808060200182810382526026815260200180620024de6026913960400191505060405180910390fd5b8073ffffffffffffffffffffffffffffffffffffffff1660008054906101000a900473ffffffffffffffffffffffffffffffffffffffff1673ffffffffffffffffffffffffffffffffffffffff167f8be0079c531659141344cd1fd0a4f28419497f9722a3daafe3b4186f6b6457e060405160405180910390a3806000806101000a81548173ffffffffffffffffffffffffffffffffffffffff021916908373ffffffffffffffffffffffffffffffffffffffff16021790555050565b6120f680620003e86000396000f3fe608060405234801561001057600080fd5b50600436106101165760003560e01c8063630b5ba1116100a257806393f1a40b1161007157806393f1a40b146103be578063b05b6b6514610427578063c254578a14610445578063e2bbb15814610479578063f2fde38b146104b157610116565b8063630b5ba11461033257806364482f791461033c578063715018a6146103805780638da5cb5b1461038a57610116565b8063441a3e70116100e9578063441a3e701461021e57806346d9987f1461025657806348cd4cb1146102b857806351eb05a6146102d65780635312ea8e1461030457610116565b8063081e3eda1461011b5780631526fe271461013957806317caf6f1146101a65780631eaaa045146101c4575b600080fd5b6101236104f5565b6040518082815260200191505060405180910390f35b6101656004803603602081101561014f57600080fd5b8101908080359060200190929190505050610502565b604051808573ffffffffffffffffffffffffffffffffffffffff16815260200184815260200183815260200182815260200194505050505060405180910390f35b6101ae61055f565b6040518082815260200191505060405180910390f35b61021c600480360360608110156101da57600080fd5b8101908080359060200190929190803573ffffffffffffffffffffffffffffffffffffffff169060200190929190803515159060200190929190505050610565565b005b6102546004803603604081101561023457600080fd5b81019080803590602001909291908035906020019092919050505061073e565b005b6102a26004803603604081101561026c57600080fd5b8101908080359060200190929190803573ffffffffffffffffffffffffffffffffffffffff169060200190929190505050610988565b6040518082815260200191505060405180910390f35b6102c0610ba9565b6040518082815260200191505060405180910390f35b610302600480360360208110156102ec57600080fd5b8101908080359060200190929190505050610baf565b005b6103306004803603602081101561031a57600080fd5b8101908080359060200190929190505050610d4b565b005b61033a610e7d565b005b61037e6004803603606081101561035257600080fd5b810190808035906020019092919080359060200190929190803515159060200190929190505050610eaa565b005b610388610ff4565b005b61039261117a565b604051808273ffffffffffffffffffffffffffffffffffffffff16815260200191505060405180910390f35b61040a600480360360408110156103d457600080fd5b8101908080359060200190929190803573ffffffffffffffffffffffffffffffffffffffff1690602001909291905050506111a3565b604051808381526020018281526020019250505060405180910390f35b61042f6111d4565b6040518082815260200191505060405180910390f35b61044d6111da565b604051808273ffffffffffffffffffffffffffffffffffffffff16815260200191505060405180910390f35b6104af6004803603604081101561048f57600080fd5b810190808035906020019092919080359060200190929190505050611200565b005b6104f3600480360360208110156104c757600080fd5b81019080803573ffffffffffffffffffffffffffffffffffffffff1690602001909291905050506113e0565b005b6000600380549050905090565b6003818154811061050f57fe5b90600052602060002090600402016000915090508060000160009054906101000a900473ffffffffffffffffffffffffffffffffffffffff16908060010154908060020154908060030154905084565b60055481565b61056d6115eb565b73ffffffffffffffffffffffffffffffffffffffff1660008054906101000a900473ffffffffffffffffffffffffffffffffffffffff1673ffffffffffffffffffffffffffffffffffffffff161461062d576040517f08c379a00000000000000000000000000000000000000000000000000000000081526004018080602001828103825260208152602001807f4f776e61626c653a2063616c6c6572206973206e6f7420746865206f776e657281525060200191505060405180910390fd5b801561063c5761063b610e7d565b5b6000600654431161064f57600654610651565b435b9050610668846005546115f390919063ffffffff16565b600581905550600360405180608001604052808573ffffffffffffffffffffffffffffffffffffffff1681526020018681526020018381526020016000815250908060018154018082558091505060019003906000526020600020906004020160009091909190915060008201518160000160006101000a81548173ffffffffffffffffffffffffffffffffffffffff021916908373ffffffffffffffffffffffffffffffffffffffff160217905550602082015181600101556040820151816002015560608201518160030155505050505050565b60006003838154811061074d57fe5b9060005260206000209060040201905060006004600085815260200190815260200160002060003373ffffffffffffffffffffffffffffffffffffffff1673ffffffffffffffffffffffffffffffffffffffff1681526020019081526020016000209050828160000154101561082b576040517f08c379a00000000000000000000000000000000000000000000000000000000081526004018080602001828103825260128152602001807f77697468647261773a206e6f7420676f6f64000000000000000000000000000081525060200191505060405180910390fd5b61083484610baf565b600061087e826001015461087064e8d4a510006108628760030154876000015461167b90919063ffffffff16565b61170190919063ffffffff16565b61174b90919063ffffffff16565b905061088a3382611795565b6108a184836000015461174b90919063ffffffff16565b82600001819055506108db64e8d4a510006108cd8560030154856000015461167b90919063ffffffff16565b61170190919063ffffffff16565b826001018190555061093233858560000160009054906101000a900473ffffffffffffffffffffffffffffffffffffffff1673ffffffffffffffffffffffffffffffffffffffff16611a0e9092919063ffffffff16565b843373ffffffffffffffffffffffffffffffffffffffff167ff279e6a1f5e320cca91135676d9cb6e44ca8a08c0b88342bcdb1144f6511b568866040518082815260200191505060405180910390a35050505050565b6000806003848154811061099857fe5b9060005260206000209060040201905060006004600086815260200190815260200160002060008573ffffffffffffffffffffffffffffffffffffffff1673ffffffffffffffffffffffffffffffffffffffff168152602001908152602001600020905060008260030154905060008360000160009054906101000a900473ffffffffffffffffffffffffffffffffffffffff1673ffffffffffffffffffffffffffffffffffffffff166370a08231306040518263ffffffff1660e01b8152600401808273ffffffffffffffffffffffffffffffffffffffff16815260200191505060206040518083038186803b158015610a9257600080fd5b505afa158015610aa6573d6000803e3d6000fd5b505050506040513d6020811015610abc57600080fd5b81019080805190602001909291905050509050836002015443118015610ae3575060008114155b15610b59576000610b17600554610b09876001015460025461167b90919063ffffffff16565b61170190919063ffffffff16565b9050610b55610b4683610b3864e8d4a510008561167b90919063ffffffff16565b61170190919063ffffffff16565b846115f390919063ffffffff16565b9250505b610b9d8360010154610b8f64e8d4a51000610b8186886000015461167b90919063ffffffff16565b61170190919063ffffffff16565b61174b90919063ffffffff16565b94505050505092915050565b60065481565b600060038281548110610bbe57fe5b9060005260206000209060040201905080600201544311610bdf5750610d48565b60008160000160009054906101000a900473ffffffffffffffffffffffffffffffffffffffff1673ffffffffffffffffffffffffffffffffffffffff166370a08231306040518263ffffffff1660e01b8152600401808273ffffffffffffffffffffffffffffffffffffffff16815260200191505060206040518083038186803b158015610c6c57600080fd5b505afa158015610c80573d6000803e3d6000fd5b505050506040513d6020811015610c9657600080fd5b810190808051906020019092919050505090506000811415610cc2574382600201819055505050610d48565b6000610cf1600554610ce3856001015460025461167b90919063ffffffff16565b61170190919063ffffffff16565b9050610d33610d2083610d1264e8d4a510008561167b90919063ffffffff16565b61170190919063ffffffff16565b84600301546115f390919063ffffffff16565b83600301819055504383600201819055505050505b50565b600060038281548110610d5a57fe5b9060005260206000209060040201905060006004600084815260200190815260200160002060003373ffffffffffffffffffffffffffffffffffffffff1673ffffffffffffffffffffffffffffffffffffffff1681526020019081526020016000209050610e113382600001548460000160009054906101000a900473ffffffffffffffffffffffffffffffffffffffff1673ffffffffffffffffffffffffffffffffffffffff16611a0e9092919063ffffffff16565b823373ffffffffffffffffffffffffffffffffffffffff167fbb757047c2b5f3974fe26b7c10f732e7bce710b0952a71082702781e62ae059583600001546040518082815260200191505060405180910390a36000816000018190555060008160010181905550505050565b6000600380549050905060005b81811015610ea657610e9b81610baf565b806001019050610e8a565b5050565b610eb26115eb565b73ffffffffffffffffffffffffffffffffffffffff1660008054906101000a900473ffffffffffffffffffffffffffffffffffffffff1673ffffffffffffffffffffffffffffffffffffffff1614610f72576040517f08c379a00000000000000000000000000000000000000000000000000000000081526004018080602001828103825260208152602001807f4f776e61626c653a2063616c6c6572206973206e6f7420746865206f776e657281525060200191505060405180910390fd5b8015610f8157610f80610e7d565b5b610fc682610fb860038681548110610f9557fe5b90600052602060002090600402016001015460055461174b90919063ffffffff16565b6115f390919063ffffffff16565b6005819055508160038481548110610fda57fe5b906000526020600020906004020160010181905550505050565b610ffc6115eb565b73ffffffffffffffffffffffffffffffffffffffff1660008054906101000a900473ffffffffffffffffffffffffffffffffffffffff1673ffffffffffffffffffffffffffffffffffffffff16146110bc576040517f08c379a00000000000000000000000000000000000000000000000000000000081526004018080602001828103825260208152602001807f4f776e61626c653a2063616c6c6572206973206e6f7420746865206f776e657281525060200191505060405180910390fd5b600073ffffffffffffffffffffffffffffffffffffffff1660008054906101000a900473ffffffffffffffffffffffffffffffffffffffff1673ffffffffffffffffffffffffffffffffffffffff167f8be0079c531659141344cd1fd0a4f28419497f9722a3daafe3b4186f6b6457e060405160405180910390a360008060006101000a81548173ffffffffffffffffffffffffffffffffffffffff021916908373ffffffffffffffffffffffffffffffffffffffff160217905550565b60008060009054906101000a900473ffffffffffffffffffffffffffffffffffffffff16905090565b6004602052816000526040600020602052806000526040600020600091509150508060000154908060010154905082565b60025481565b600160009054906101000a900473ffffffffffffffffffffffffffffffffffffffff1681565b60006003838154811061120f57fe5b9060005260206000209060040201905060006004600085815260200190815260200160002060003373ffffffffffffffffffffffffffffffffffffffff1673ffffffffffffffffffffffffffffffffffffffff168152602001908152602001600020905061127c84610baf565b6000816000015411156112e15760006112d382600101546112c564e8d4a510006112b78760030154876000015461167b90919063ffffffff16565b61170190919063ffffffff16565b61174b90919063ffffffff16565b90506112df3382611795565b505b6113323330858560000160009054906101000a900473ffffffffffffffffffffffffffffffffffffffff1673ffffffffffffffffffffffffffffffffffffffff16611ab0909392919063ffffffff16565b6113498382600001546115f390919063ffffffff16565b816000018190555061138364e8d4a510006113758460030154846000015461167b90919063ffffffff16565b61170190919063ffffffff16565b8160010181905550833373ffffffffffffffffffffffffffffffffffffffff167f90890809c654f11d6e72a28fa60149770a0d11ec6c92319d6ceb2bb0a4ea1a15856040518082815260200191505060405180910390a350505050565b6113e86115eb565b73ffffffffffffffffffffffffffffffffffffffff1660008054906101000a900473ffffffffffffffffffffffffffffffffffffffff1673ffffffffffffffffffffffffffffffffffffffff16146114a8576040517f08c379a00000000000000000000000000000000000000000000000000000000081526004018080602001828103825260208152602001807f4f776e61626c653a2063616c6c6572206973206e6f7420746865206f776e657281525060200191505060405180910390fd5b600073ffffffffffffffffffffffffffffffffffffffff168173ffffffffffffffffffffffffffffffffffffffff16141561152e576040517f08c379a00000000000000000000000000000000000000000000000000000000081526004018080602001828103825260268152602001806120506026913960400191505060405180910390fd5b8073ffffffffffffffffffffffffffffffffffffffff1660008054906101000a900473ffffffffffffffffffffffffffffffffffffffff1673ffffffffffffffffffffffffffffffffffffffff167f8be0079c531659141344cd1fd0a4f28419497f9722a3daafe3b4186f6b6457e060405160405180910390a3806000806101000a81548173ffffffffffffffffffffffffffffffffffffffff021916908373ffffffffffffffffffffffffffffffffffffffff16021790555050565b600033905090565b600080828401905083811015611671576040517f08c379a000000000000000000000000000000000000000000000000000000000815260040180806020018281038252601b8152602001807f536166654d6174683a206164646974696f6e206f766572666c6f77000000000081525060200191505060405180910390fd5b8091505092915050565b60008083141561168e57600090506116fb565b600082840290508284828161169f57fe5b04146116f6576040517f08c379a00000000000000000000000000000000000000000000000000000000081526004018080602001828103825260218152602001806120766021913960400191505060405180910390fd5b809150505b92915050565b600061174383836040518060400160405280601a81526020017f536166654d6174683a206469766973696f6e206279207a65726f000000000000815250611b71565b905092915050565b600061178d83836040518060400160405280601e81526020017f536166654d6174683a207375627472616374696f6e206f766572666c6f770000815250611c37565b905092915050565b6000600160009054906101000a900473ffffffffffffffffffffffffffffffffffffffff1673ffffffffffffffffffffffffffffffffffffffff166370a08231306040518263ffffffff1660e01b8152600401808273ffffffffffffffffffffffffffffffffffffffff16815260200191505060206040518083038186803b15801561182057600080fd5b505afa158015611834573d6000803e3d6000fd5b505050506040513d602081101561184a57600080fd5b810190808051906020019092919050505090508082111561193957600160009054906101000a900473ffffffffffffffffffffffffffffffffffffffff1673ffffffffffffffffffffffffffffffffffffffff1663a9059cbb84836040518363ffffffff1660e01b8152600401808373ffffffffffffffffffffffffffffffffffffffff16815260200182815260200192505050602060405180830381600087803b1580156118f857600080fd5b505af115801561190c573d6000803e3d6000fd5b505050506040513d602081101561192257600080fd5b810190808051906020019092919050505050611a09565b600160009054906101000a900473ffffffffffffffffffffffffffffffffffffffff1673ffffffffffffffffffffffffffffffffffffffff1663a9059cbb84846040518363ffffffff1660e01b8152600401808373ffffffffffffffffffffffffffffffffffffffff16815260200182815260200192505050602060405180830381600087803b1580156119cc57600080fd5b505af11580156119e0573d6000803e3d6000fd5b505050506040513d60208110156119f657600080fd5b8101908080519060200190929190505050505b505050565b611aab8363a9059cbb60e01b8484604051602401808373ffffffffffffffffffffffffffffffffffffffff16815260200182815260200192505050604051602081830303815290604052907bffffffffffffffffffffffffffffffffffffffffffffffffffffffff19166020820180517bffffffffffffffffffffffffffffffffffffffffffffffffffffffff8381831617835250505050611cf7565b505050565b611b6b846323b872dd60e01b858585604051602401808473ffffffffffffffffffffffffffffffffffffffff1681526020018373ffffffffffffffffffffffffffffffffffffffff1681526020018281526020019350505050604051602081830303815290604052907bffffffffffffffffffffffffffffffffffffffffffffffffffffffff19166020820180517bffffffffffffffffffffffffffffffffffffffffffffffffffffffff8381831617835250505050611cf7565b50505050565b60008083118290611c1d576040517f08c379a00000000000000000000000000000000000000000000000000000000081526004018080602001828103825283818151815260200191508051906020019080838360005b83811015611be2578082015181840152602081019050611bc7565b50505050905090810190601f168015611c0f5780820380516001836020036101000a031916815260200191505b509250505060405180910390fd5b506000838581611c2957fe5b049050809150509392505050565b6000838311158290611ce4576040517f08c379a00000000000000000000000000000000000000000000000000000000081526004018080602001828103825283818151815260200191508051906020019080838360005b83811015611ca9578082015181840152602081019050611c8e565b50505050905090810190601f168015611cd65780820380516001836020036101000a031916815260200191505b509250505060405180910390fd5b5060008385039050809150509392505050565b6060611d59826040518060400160405280602081526020017f5361666545524332303a206c6f772d6c6576656c2063616c6c206661696c65648152508573ffffffffffffffffffffffffffffffffffffffff16611de69092919063ffffffff16565b9050600081511115611de157808060200190516020811015611d7a57600080fd5b8101908080519060200190929190505050611de0576040517f08c379a000000000000000000000000000000000000000000000000000000000815260040180806020018281038252602a815260200180612097602a913960400191505060405180910390fd5b5b505050565b6060611df58484600085611dfe565b90509392505050565b6060611e0985612004565b611e7b576040517f08c379a000000000000000000000000000000000000000000000000000000000815260040180806020018281038252601d8152602001807f416464726573733a2063616c6c20746f206e6f6e2d636f6e747261637400000081525060200191505060405180910390fd5b600060608673ffffffffffffffffffffffffffffffffffffffff1685876040518082805190602001908083835b60208310611ecb5780518252602082019150602081019050602083039250611ea8565b6001836020036101000a03801982511681845116808217855250505050505090500191505060006040518083038185875af1925050503d8060008114611f2d576040519150601f19603f3d011682016040523d82523d6000602084013e611f32565b606091505b50915091508115611f47578092505050611ffc565b600081511115611f5a5780518082602001fd5b836040517f08c379a00000000000000000000000000000000000000000000000000000000081526004018080602001828103825283818151815260200191508051906020019080838360005b83811015611fc1578082015181840152602081019050611fa6565b50505050905090810190601f168015611fee5780820380516001836020036101000a031916815260200191505b509250505060405180910390fd5b949350505050565b60008060007fc5d2460186f7233c927e7db2dcc703c0e500b653ca82273b7bfad8045d85a47060001b9050833f915080821415801561204657506000801b8214155b9250505091905056fe4f776e61626c653a206e6577206f776e657220697320746865207a65726f2061646472657373536166654d6174683a206d756c7469706c69636174696f6e206f766572666c6f775361666545524332303a204552433230206f7065726174696f6e20646964206e6f742073756363656564a2646970667358221220d0e314c10de00bea80bec6ba484eaebe9738babf17f2cacdc0ea5658f3af381164736f6c634300060c00334f776e61626c653a206e6577206f776e657220697320746865207a65726f2061646472657373",
  "devdoc": {
    "kind": "dev",
    "methods": {
      "owner()": {
        "details": "Returns the address of the current owner."
      },
      "renounceOwnership()": {
        "details": "Leaves the contract without owner. It will not be possible to call `onlyOwner` functions anymore. Can only be called by the current owner. NOTE: Renouncing ownership will leave the contract without an owner, thereby removing any functionality that is only available to the owner."
      },
      "transferOwnership(address)": {
        "details": "Transfers ownership of the contract to a new account (`newOwner`). Can only be called by the current owner."
      }
    },
    "version": 1
  },
  "userdoc": {
    "kind": "user",
    "methods": {},
    "version": 1
  },
  "storageLayout": {
    "storage": [
      {
        "astId": 30,
        "contract": "contracts/SwdStaking.sol:SwdStaking",
        "label": "_owner",
        "offset": 0,
        "slot": "0",
        "type": "t_address"
      },
      {
        "astId": 1248,
        "contract": "contracts/SwdStaking.sol:SwdStaking",
        "label": "swdToken",
        "offset": 0,
        "slot": "1",
        "type": "t_contract(IERC20)405"
      },
      {
        "astId": 1250,
        "contract": "contracts/SwdStaking.sol:SwdStaking",
        "label": "swdPerBlock",
        "offset": 0,
        "slot": "2",
        "type": "t_uint256"
      },
      {
        "astId": 1253,
        "contract": "contracts/SwdStaking.sol:SwdStaking",
        "label": "poolInfo",
        "offset": 0,
        "slot": "3",
        "type": "t_array(t_struct(PoolInfo)1246_storage)dyn_storage"
      },
      {
        "astId": 1259,
        "contract": "contracts/SwdStaking.sol:SwdStaking",
        "label": "userInfo",
        "offset": 0,
        "slot": "4",
        "type": "t_mapping(t_uint256,t_mapping(t_address,t_struct(UserInfo)1237_storage))"
      },
      {
        "astId": 1262,
        "contract": "contracts/SwdStaking.sol:SwdStaking",
        "label": "totalAllocPoint",
        "offset": 0,
        "slot": "5",
        "type": "t_uint256"
      },
      {
        "astId": 1264,
        "contract": "contracts/SwdStaking.sol:SwdStaking",
        "label": "startBlock",
        "offset": 0,
        "slot": "6",
        "type": "t_uint256"
      }
    ],
    "types": {
      "t_address": {
        "encoding": "inplace",
        "label": "address",
        "numberOfBytes": "20"
      },
      "t_array(t_struct(PoolInfo)1246_storage)dyn_storage": {
        "base": "t_struct(PoolInfo)1246_storage",
        "encoding": "dynamic_array",
        "label": "struct SwdStaking.PoolInfo[]",
        "numberOfBytes": "32"
      },
      "t_contract(IERC20)405": {
        "encoding": "inplace",
        "label": "contract IERC20",
        "numberOfBytes": "20"
      },
      "t_mapping(t_address,t_struct(UserInfo)1237_storage)": {
        "encoding": "mapping",
        "key": "t_address",
        "label": "mapping(address => struct SwdStaking.UserInfo)",
        "numberOfBytes": "32",
        "value": "t_struct(UserInfo)1237_storage"
      },
      "t_mapping(t_uint256,t_mapping(t_address,t_struct(UserInfo)1237_storage))": {
        "encoding": "mapping",
        "key": "t_uint256",
        "label": "mapping(uint256 => mapping(address => struct SwdStaking.UserInfo))",
        "numberOfBytes": "32",
        "value": "t_mapping(t_address,t_struct(UserInfo)1237_storage)"
      },
      "t_struct(PoolInfo)1246_storage": {
        "encoding": "inplace",
        "label": "struct SwdStaking.PoolInfo",
        "members": [
          {
            "astId": 1239,
            "contract": "contracts/SwdStaking.sol:SwdStaking",
            "label": "lpToken",
            "offset": 0,
            "slot": "0",
            "type": "t_contract(IERC20)405"
          },
          {
            "astId": 1241,
            "contract": "contracts/SwdStaking.sol:SwdStaking",
            "label": "allocPoint",
            "offset": 0,
            "slot": "1",
            "type": "t_uint256"
          },
          {
            "astId": 1243,
            "contract": "contracts/SwdStaking.sol:SwdStaking",
            "label": "lastRewardBlock",
            "offset": 0,
            "slot": "2",
            "type": "t_uint256"
          },
          {
            "astId": 1245,
            "contract": "contracts/SwdStaking.sol:SwdStaking",
            "label": "accSwdPerShare",
            "offset": 0,
            "slot": "3",
            "type": "t_uint256"
          }
        ],
        "numberOfBytes": "128"
      },
      "t_struct(UserInfo)1237_storage": {
        "encoding": "inplace",
        "label": "struct SwdStaking.UserInfo",
        "members": [
          {
            "astId": 1234,
            "contract": "contracts/SwdStaking.sol:SwdStaking",
            "label": "amount",
            "offset": 0,
            "slot": "0",
            "type": "t_uint256"
          },
          {
            "astId": 1236,
            "contract": "contracts/SwdStaking.sol:SwdStaking",
            "label": "rewardDebt",
            "offset": 0,
            "slot": "1",
            "type": "t_uint256"
          }
        ],
        "numberOfBytes": "64"
      },
      "t_uint256": {
        "encoding": "inplace",
        "label": "uint256",
        "numberOfBytes": "32"
      }
    }
  }
}